{
  "contractName": "lottery",
  "abi": [
    {
      "inputs": [],
      "stateMutability": "nonpayable",
      "type": "constructor"
    },
    {
      "inputs": [],
      "name": "lotteryId",
      "outputs": [
        {
          "internalType": "uint256",
          "name": "",
          "type": "uint256"
        }
      ],
      "stateMutability": "view",
      "type": "function",
      "constant": true
    },
    {
      "inputs": [],
      "name": "owner",
      "outputs": [
        {
          "internalType": "address",
          "name": "",
          "type": "address"
        }
      ],
      "stateMutability": "view",
      "type": "function",
      "constant": true
    },
    {
      "inputs": [
        {
          "internalType": "uint256",
          "name": "",
          "type": "uint256"
        }
      ],
      "name": "players",
      "outputs": [
        {
          "internalType": "address payable",
          "name": "",
          "type": "address"
        }
      ],
      "stateMutability": "view",
      "type": "function",
      "constant": true
    },
    {
      "inputs": [
        {
          "internalType": "uint256",
          "name": "",
          "type": "uint256"
        }
      ],
      "name": "winners",
      "outputs": [
        {
          "internalType": "address",
          "name": "",
          "type": "address"
        }
      ],
      "stateMutability": "view",
      "type": "function",
      "constant": true
    },
    {
      "inputs": [],
      "name": "enter",
      "outputs": [],
      "stateMutability": "payable",
      "type": "function",
      "payable": true
    },
    {
      "inputs": [],
      "name": "getPlayers",
      "outputs": [
        {
          "internalType": "address payable[]",
          "name": "",
          "type": "address[]"
        }
      ],
      "stateMutability": "view",
      "type": "function",
      "constant": true
    },
    {
      "inputs": [],
      "name": "getBlance",
      "outputs": [
        {
          "internalType": "uint256",
          "name": "",
          "type": "uint256"
        }
      ],
      "stateMutability": "view",
      "type": "function",
      "constant": true
    },
    {
      "inputs": [],
      "name": "getLotteryId",
      "outputs": [
        {
          "internalType": "uint256",
          "name": "",
          "type": "uint256"
        }
      ],
      "stateMutability": "view",
      "type": "function",
      "constant": true
    },
    {
      "inputs": [],
      "name": "getRandomNumber",
      "outputs": [
        {
          "internalType": "uint256",
          "name": "",
          "type": "uint256"
        }
      ],
      "stateMutability": "view",
      "type": "function",
      "constant": true
    },
    {
      "inputs": [],
      "name": "pickWinner",
      "outputs": [],
      "stateMutability": "nonpayable",
      "type": "function"
    },
    {
      "inputs": [],
      "name": "getWinners",
      "outputs": [
        {
          "internalType": "address[]",
          "name": "",
          "type": "address[]"
        }
      ],
      "stateMutability": "view",
      "type": "function",
      "constant": true
    }
  ],
  "bytecode": "0x608060405234801561001057600080fd5b50336000806101000a81548173ffffffffffffffffffffffffffffffffffffffff021916908373ffffffffffffffffffffffffffffffffffffffff1602179055506000600381905550610cb3806100686000396000f3fe60806040526004361061009c5760003560e01c8063a2fb117511610064578063a2fb117514610164578063dbdff2c1146101a1578063df15c37e146101cc578063e580f47b146101f7578063e97dcb6214610222578063f71d96cb1461022c5761009c565b80635d495aea146100a15780638b5b9ccc146100b85780638da5cb5b146100e3578063900aafaf1461010e578063941be5f714610139575b600080fd5b3480156100ad57600080fd5b506100b6610269565b005b3480156100c457600080fd5b506100cd61047e565b6040516100da91906108b9565b60405180910390f35b3480156100ef57600080fd5b506100f861050c565b60405161010591906108fc565b60405180910390f35b34801561011a57600080fd5b50610123610530565b6040516101309190610930565b60405180910390f35b34801561014557600080fd5b5061014e61053a565b60405161015b9190610930565b60405180910390f35b34801561017057600080fd5b5061018b6004803603810190610186919061097c565b610542565b60405161019891906108fc565b60405180910390f35b3480156101ad57600080fd5b506101b6610581565b6040516101c39190610930565b60405180910390f35b3480156101d857600080fd5b506101e16105d5565b6040516101ee9190610a67565b60405180910390f35b34801561020357600080fd5b5061020c610663565b6040516102199190610930565b60405180910390f35b61022a610669565b005b34801561023857600080fd5b50610253600480360381019061024e919061097c565b6106e3565b6040516102609190610a98565b60405180910390f35b60008054906101000a900473ffffffffffffffffffffffffffffffffffffffff1673ffffffffffffffffffffffffffffffffffffffff163373ffffffffffffffffffffffffffffffffffffffff16146102c157600080fd5b60006001805490506102d1610581565b6102db9190610ae2565b9050600181815481106102f1576102f0610b13565b5b9060005260206000200160009054906101000a900473ffffffffffffffffffffffffffffffffffffffff1673ffffffffffffffffffffffffffffffffffffffff166108fc479081150290604051600060405180830381858888f19350505050158015610361573d6000803e3d6000fd5b5060026001828154811061037857610377610b13565b5b9060005260206000200160009054906101000a900473ffffffffffffffffffffffffffffffffffffffff169080600181540180825580915050600190039060005260206000200160009091909190916101000a81548173ffffffffffffffffffffffffffffffffffffffff021916908373ffffffffffffffffffffffffffffffffffffffff1602179055506003600081548092919061041690610b71565b9190505550600067ffffffffffffffff81111561043657610435610bb9565b5b6040519080825280602002602001820160405280156104645781602001602082028036833780820191505090505b506001908051906020019061047a929190610722565b5050565b6060600180548060200260200160405190810160405280929190818152602001828054801561050257602002820191906000526020600020905b8160009054906101000a900473ffffffffffffffffffffffffffffffffffffffff1673ffffffffffffffffffffffffffffffffffffffff16815260200190600101908083116104b8575b5050505050905090565b60008054906101000a900473ffffffffffffffffffffffffffffffffffffffff1681565b6000600354905090565b600047905090565b6002818154811061055257600080fd5b906000526020600020016000915054906101000a900473ffffffffffffffffffffffffffffffffffffffff1681565b60008060009054906101000a900473ffffffffffffffffffffffffffffffffffffffff16426040516020016105b7929190610c51565b6040516020818303038152906040528051906020012060001c905090565b6060600280548060200260200160405190810160405280929190818152602001828054801561065957602002820191906000526020600020905b8160009054906101000a900473ffffffffffffffffffffffffffffffffffffffff1673ffffffffffffffffffffffffffffffffffffffff168152602001906001019080831161060f575b5050505050905090565b60035481565b67016345785d8a000034101561067e57600080fd5b6001339080600181540180825580915050600190039060005260206000200160009091909190916101000a81548173ffffffffffffffffffffffffffffffffffffffff021916908373ffffffffffffffffffffffffffffffffffffffff160217905550565b600181815481106106f357600080fd5b906000526020600020016000915054906101000a900473ffffffffffffffffffffffffffffffffffffffff1681565b82805482825590600052602060002090810192821561079b579160200282015b8281111561079a5782518260006101000a81548173ffffffffffffffffffffffffffffffffffffffff021916908373ffffffffffffffffffffffffffffffffffffffff16021790555091602001919060010190610742565b5b5090506107a891906107ac565b5090565b5b808211156107c55760008160009055506001016107ad565b5090565b600081519050919050565b600082825260208201905092915050565b6000819050602082019050919050565b600073ffffffffffffffffffffffffffffffffffffffff82169050919050565b6000610820826107f5565b9050919050565b61083081610815565b82525050565b60006108428383610827565b60208301905092915050565b6000602082019050919050565b6000610866826107c9565b61087081856107d4565b935061087b836107e5565b8060005b838110156108ac5781516108938882610836565b975061089e8361084e565b92505060018101905061087f565b5085935050505092915050565b600060208201905081810360008301526108d3818461085b565b905092915050565b60006108e6826107f5565b9050919050565b6108f6816108db565b82525050565b600060208201905061091160008301846108ed565b92915050565b6000819050919050565b61092a81610917565b82525050565b60006020820190506109456000830184610921565b92915050565b600080fd5b61095981610917565b811461096457600080fd5b50565b60008135905061097681610950565b92915050565b6000602082840312156109925761099161094b565b5b60006109a084828501610967565b91505092915050565b600081519050919050565b600082825260208201905092915050565b6000819050602082019050919050565b6109de816108db565b82525050565b60006109f083836109d5565b60208301905092915050565b6000602082019050919050565b6000610a14826109a9565b610a1e81856109b4565b9350610a29836109c5565b8060005b83811015610a5a578151610a4188826109e4565b9750610a4c836109fc565b925050600181019050610a2d565b5085935050505092915050565b60006020820190508181036000830152610a818184610a09565b905092915050565b610a9281610815565b82525050565b6000602082019050610aad6000830184610a89565b92915050565b7f4e487b7100000000000000000000000000000000000000000000000000000000600052601260045260246000fd5b6000610aed82610917565b9150610af883610917565b925082610b0857610b07610ab3565b5b828206905092915050565b7f4e487b7100000000000000000000000000000000000000000000000000000000600052603260045260246000fd5b7f4e487b7100000000000000000000000000000000000000000000000000000000600052601160045260246000fd5b6000610b7c82610917565b91507fffffffffffffffffffffffffffffffffffffffffffffffffffffffffffffffff8203610bae57610bad610b42565b5b600182019050919050565b7f4e487b7100000000000000000000000000000000000000000000000000000000600052604160045260246000fd5b60008160601b9050919050565b6000610c0082610be8565b9050919050565b6000610c1282610bf5565b9050919050565b610c2a610c25826108db565b610c07565b82525050565b6000819050919050565b610c4b610c4682610917565b610c30565b82525050565b6000610c5d8285610c19565b601482019150610c6d8284610c3a565b602082019150819050939250505056fea2646970667358221220ff3d6a0017e243564a4603849985aec25d05200b65b05650242c670757ab38da64736f6c634300080f0033",
  "immutableReferences": {},
  "source": "// SPDX-License-Identifier:MIT\r\n\r\npragma solidity ^0.8.15;\r\n\r\ncontract lottery {\r\n\r\n    address public owner;\r\n    address payable [] public players;\r\n    address[] public winners;\r\n    uint public lotteryId;\r\n\r\n    // constructor - this will run when contract is deployed \r\n    // you want to initialzed, owner of the contract and lottryId mst be zero\r\n\r\n    constructor (){\r\n        owner = msg.sender;\r\n        lotteryId = 0;\r\n    }\r\n    \r\n    // enter as player in the game\r\n    function enter() public payable {\r\n        require(msg.value >= 0.1 ether);\r\n        players.push(payable(msg.sender));\r\n    } \r\n\r\n    // return players \r\n    function getPlayers() public view returns ( address payable[] memory){\r\n        return players;\r\n    }\r\n\r\n    // Get Balance\r\n    function getBlance() public view returns(uint){\r\n        // solidity works in Wei\r\n        return address(this).balance;\r\n    }\r\n\r\n    // Get Lottery ID\r\n    function getLotteryId() public view returns (uint){\r\n        return lotteryId;\r\n    }\r\n\r\n    // get random number (helper function for picking winner)\r\n    function getRandomNumber() public view returns (uint) {\r\n\r\n        // this technique is not for production, hacker van destroy your add\r\n        // advice to use chainlink random genrator\r\n\r\n        return uint(keccak256(abi.encodePacked(owner, block.timestamp)));\r\n\r\n        // passing owner of the contract and timestamp : got massive randome number into int\r\n    }\r\n\r\n    // picking winner\r\n    function pickWinner() public {\r\n\r\n        // only owner needs to pick winner, nobody outsider able to pick winner\r\n        require(msg.sender == owner);\r\n        uint randomIndex = getRandomNumber()% players.length ;\r\n        players[randomIndex].transfer(address(this).balance);\r\n\r\n        // garb the winners and push the player who wins\r\n        winners.push(players[randomIndex]);\r\n        lotteryId++;\r\n\r\n        // clear the players array\r\n        players = new address payable[](0);\r\n\r\n    }\r\n\r\n    // Get Winners\r\n\r\n    function getWinners() public view returns (address [] memory){\r\n        return winners;\r\n    }\r\n\r\n    \r\n\r\n\r\n}",
  "sourcePath": "h:\\Rahul Prasad 01\\Eth Bootcamp\\lottery-dapp-youtube\\Backend\\contracts\\Lottery.sol",
  "compiler": {
    "name": "solc",
    "version": "0.8.15+commit.e14f2714.Emscripten.clang"
  },
  "schemaVersion": "3.4.14",
  "updatedAt": "2023-06-28T10:28:02.629Z",
  "networkType": "ethereum",
  "devdoc": {
    "kind": "dev",
    "methods": {},
    "version": 1
  },
  "userdoc": {
    "kind": "user",
    "methods": {},
    "version": 1
  }
}