{
  "contractName": "Transcation",
  "abi": [
    {
      "anonymous": false,
      "inputs": [
        {
          "indexed": false,
          "internalType": "address",
          "name": "from",
          "type": "address"
        },
        {
          "indexed": false,
          "internalType": "address",
          "name": "receiver",
          "type": "address"
        },
        {
          "indexed": false,
          "internalType": "uint256",
          "name": "amount",
          "type": "uint256"
        },
        {
          "indexed": false,
          "internalType": "string",
          "name": "message",
          "type": "string"
        },
        {
          "indexed": false,
          "internalType": "uint256",
          "name": "timestamp",
          "type": "uint256"
        }
      ],
      "name": "Transfer",
      "type": "event"
    },
    {
      "inputs": [
        {
          "internalType": "address payable",
          "name": "receiver",
          "type": "address"
        },
        {
          "internalType": "uint256",
          "name": "amount",
          "type": "uint256"
        },
        {
          "internalType": "string",
          "name": "message",
          "type": "string"
        }
      ],
      "name": "addToBlockchain",
      "outputs": [],
      "stateMutability": "nonpayable",
      "type": "function"
    },
    {
      "inputs": [],
      "name": "getAllTranscations",
      "outputs": [
        {
          "components": [
            {
              "internalType": "address",
              "name": "sender",
              "type": "address"
            },
            {
              "internalType": "address",
              "name": "receiver",
              "type": "address"
            },
            {
              "internalType": "uint256",
              "name": "amount",
              "type": "uint256"
            },
            {
              "internalType": "string",
              "name": "message",
              "type": "string"
            },
            {
              "internalType": "uint256",
              "name": "timestamp",
              "type": "uint256"
            }
          ],
          "internalType": "struct Transcation.TransferStruct[]",
          "name": "",
          "type": "tuple[]"
        }
      ],
      "stateMutability": "view",
      "type": "function",
      "constant": true
    }
  ],
  "bytecode": "0x608060405234801561000f575f80fd5b50610c668061001d5f395ff3fe608060405234801561000f575f80fd5b5060043610610034575f3560e01c80634c08488114610038578063eb12da4a14610056575b5f80fd5b610040610072565b60405161004d91906105b5565b60405180910390f35b610070600480360381019061006b9190610777565b61021b565b005b60606001805480602002602001604051908101604052809291908181526020015f905b82821015610212578382905f5260205f2090600502016040518060a00160405290815f82015f9054906101000a900473ffffffffffffffffffffffffffffffffffffffff1673ffffffffffffffffffffffffffffffffffffffff1673ffffffffffffffffffffffffffffffffffffffff168152602001600182015f9054906101000a900473ffffffffffffffffffffffffffffffffffffffff1673ffffffffffffffffffffffffffffffffffffffff1673ffffffffffffffffffffffffffffffffffffffff1681526020016002820154815260200160038201805461017990610810565b80601f01602080910402602001604051908101604052809291908181526020018280546101a590610810565b80156101f05780601f106101c7576101008083540402835291602001916101f0565b820191905f5260205f20905b8154815290600101906020018083116101d357829003601f168201915b5050505050815260200160048201548152505081526020019060010190610095565b50505050905090565b5f8081548092919061022c9061086d565b919050555060016040518060a001604052803373ffffffffffffffffffffffffffffffffffffffff1681526020018573ffffffffffffffffffffffffffffffffffffffff16815260200184815260200183815260200142815250908060018154018082558091505060019003905f5260205f2090600502015f909190919091505f820151815f015f6101000a81548173ffffffffffffffffffffffffffffffffffffffff021916908373ffffffffffffffffffffffffffffffffffffffff1602179055506020820151816001015f6101000a81548173ffffffffffffffffffffffffffffffffffffffff021916908373ffffffffffffffffffffffffffffffffffffffff1602179055506040820151816002015560608201518160030190816103559190610a51565b506080820151816004015550507fc4b32d7ff75a51e487f3cbb5d3202f2efecca1f4c2b987e0039c1d3220b48a833384848442604051610399959493929190610bd8565b60405180910390a1505050565b5f81519050919050565b5f82825260208201905092915050565b5f819050602082019050919050565b5f73ffffffffffffffffffffffffffffffffffffffff82169050919050565b5f6103f8826103cf565b9050919050565b610408816103ee565b82525050565b5f819050919050565b6104208161040e565b82525050565b5f81519050919050565b5f82825260208201905092915050565b5f5b8381101561045d578082015181840152602081019050610442565b5f8484015250505050565b5f601f19601f8301169050919050565b5f61048282610426565b61048c8185610430565b935061049c818560208601610440565b6104a581610468565b840191505092915050565b5f60a083015f8301516104c55f8601826103ff565b5060208301516104d860208601826103ff565b5060408301516104eb6040860182610417565b50606083015184820360608601526105038282610478565b91505060808301516105186080860182610417565b508091505092915050565b5f61052e83836104b0565b905092915050565b5f602082019050919050565b5f61054c826103a6565b61055681856103b0565b935083602082028501610568856103c0565b805f5b858110156105a357848403895281516105848582610523565b945061058f83610536565b925060208a0199505060018101905061056b565b50829750879550505050505092915050565b5f6020820190508181035f8301526105cd8184610542565b905092915050565b5f604051905090565b5f80fd5b5f80fd5b5f6105f0826103cf565b9050919050565b610600816105e6565b811461060a575f80fd5b50565b5f8135905061061b816105f7565b92915050565b61062a8161040e565b8114610634575f80fd5b50565b5f8135905061064581610621565b92915050565b5f80fd5b5f80fd5b7f4e487b71000000000000000000000000000000000000000000000000000000005f52604160045260245ffd5b61068982610468565b810181811067ffffffffffffffff821117156106a8576106a7610653565b5b80604052505050565b5f6106ba6105d5565b90506106c68282610680565b919050565b5f67ffffffffffffffff8211156106e5576106e4610653565b5b6106ee82610468565b9050602081019050919050565b828183375f83830152505050565b5f61071b610716846106cb565b6106b1565b9050828152602081018484840111156107375761073661064f565b5b6107428482856106fb565b509392505050565b5f82601f83011261075e5761075d61064b565b5b813561076e848260208601610709565b91505092915050565b5f805f6060848603121561078e5761078d6105de565b5b5f61079b8682870161060d565b93505060206107ac86828701610637565b925050604084013567ffffffffffffffff8111156107cd576107cc6105e2565b5b6107d98682870161074a565b9150509250925092565b7f4e487b71000000000000000000000000000000000000000000000000000000005f52602260045260245ffd5b5f600282049050600182168061082757607f821691505b60208210810361083a576108396107e3565b5b50919050565b7f4e487b71000000000000000000000000000000000000000000000000000000005f52601160045260245ffd5b5f6108778261040e565b91507fffffffffffffffffffffffffffffffffffffffffffffffffffffffffffffffff82036108a9576108a8610840565b5b600182019050919050565b5f819050815f5260205f209050919050565b5f6020601f8301049050919050565b5f82821b905092915050565b5f600883026109107fffffffffffffffffffffffffffffffffffffffffffffffffffffffffffffffff826108d5565b61091a86836108d5565b95508019841693508086168417925050509392505050565b5f819050919050565b5f61095561095061094b8461040e565b610932565b61040e565b9050919050565b5f819050919050565b61096e8361093b565b61098261097a8261095c565b8484546108e1565b825550505050565b5f90565b61099661098a565b6109a1818484610965565b505050565b5b818110156109c4576109b95f8261098e565b6001810190506109a7565b5050565b601f821115610a09576109da816108b4565b6109e3846108c6565b810160208510156109f2578190505b610a066109fe856108c6565b8301826109a6565b50505b505050565b5f82821c905092915050565b5f610a295f1984600802610a0e565b1980831691505092915050565b5f610a418383610a1a565b9150826002028217905092915050565b610a5a82610426565b67ffffffffffffffff811115610a7357610a72610653565b5b610a7d8254610810565b610a888282856109c8565b5f60209050601f831160018114610ab9575f8415610aa7578287015190505b610ab18582610a36565b865550610b18565b601f198416610ac7866108b4565b5f5b82811015610aee57848901518255600182019150602085019450602081019050610ac9565b86831015610b0b5784890151610b07601f891682610a1a565b8355505b6001600288020188555050505b505050505050565b610b29816103ee565b82525050565b5f610b49610b44610b3f846103cf565b610932565b6103cf565b9050919050565b5f610b5a82610b2f565b9050919050565b5f610b6b82610b50565b9050919050565b610b7b81610b61565b82525050565b610b8a8161040e565b82525050565b5f82825260208201905092915050565b5f610baa82610426565b610bb48185610b90565b9350610bc4818560208601610440565b610bcd81610468565b840191505092915050565b5f60a082019050610beb5f830188610b20565b610bf86020830187610b72565b610c056040830186610b81565b8181036060830152610c178185610ba0565b9050610c266080830184610b81565b969550505050505056fea26469706673582212208c944d4e29944501d7979e33ff3df4ece85dd94239fbeafffc78989afbb153ca64736f6c63430008140033",
  "immutableReferences": {},
  "source": "// SPDX-License-Identifier:UNLICENSE\r\n\r\npragma solidity ^0.8.15;\r\n\r\ncontract Transcation {\r\n\r\n    // Number of Tx\r\n    uint256 transcationCount;\r\n\r\n    // this will be event that will be fired when a new transcation is created\r\n    event Transfer(address from, address receiver, uint amount, string message, uint timestamp);\r\n\r\n    // struct to store transcation details on chain\r\n    struct TransferStruct{\r\n        address sender;\r\n        address receiver;\r\n        uint amount;\r\n        string message;\r\n        uint256 timestamp;\r\n\r\n    }\r\n\r\n    // array of transcation struct\r\n    TransferStruct[] transcations; // [{reciver:0xa..,amount:100,message:\"hello\",timestamp:1234567890},{reciver:0xa..,amount:100,message:\"hello\",timestamp:1234567890}]\r\n    \r\n    // function to add a transcation to the blockchain with our struct\r\n    // payable keyword here means that the receiver is able to receive ether by sender\r\n\r\n    function addToBlockchain(address payable receiver, uint amount, string memory message) public {\r\n\r\n        // increase the transcation count\r\n        transcationCount++;\r\n\r\n        //push TransferStruct struct into transcations array\r\n        transcations.push(TransferStruct(msg.sender, receiver, amount, message, block.timestamp));\r\n\r\n        // emit the event that we created \r\n        emit Transfer(msg.sender, receiver, amount, message, block.timestamp);\r\n\r\n    }\r\n\r\n    // function to get all transcations\r\n    function getAllTranscations() public view returns(TransferStruct[] memory){\r\n        return transcations;\r\n    }\r\n\r\n    //view keyword means that func can only be used to read data from blockchain\r\n    // therefor no ether needed to run the functions\r\n\r\n    \r\n\r\n    \r\n}",
  "sourcePath": "h:\\Rahul Prasad 01\\Eth Bootcamp\\Venmo_Dapp\\Backend\\contracts\\Transcation.sol",
  "compiler": {
    "name": "solc",
    "version": "0.8.20+commit.a1b79de6.Emscripten.clang"
  },
  "schemaVersion": "3.4.14",
  "updatedAt": "2023-07-01T11:55:38.467Z",
  "networkType": "ethereum",
  "devdoc": {
    "kind": "dev",
    "methods": {},
    "version": 1
  },
  "userdoc": {
    "kind": "user",
    "methods": {},
    "version": 1
  }
}