{
    "contractName": "Transcation",
    "abi": [
        {
            "anonymous": false,
            "inputs": [
                {
                    "indexed": false,
                    "internalType": "address",
                    "name": "from",
                    "type": "address"
                },
                {
                    "indexed": false,
                    "internalType": "address",
                    "name": "receiver",
                    "type": "address"
                },
                {
                    "indexed": false,
                    "internalType": "uint256",
                    "name": "amount",
                    "type": "uint256"
                },
                {
                    "indexed": false,
                    "internalType": "string",
                    "name": "message",
                    "type": "string"
                },
                {
                    "indexed": false,
                    "internalType": "uint256",
                    "name": "timestamp",
                    "type": "uint256"
                }
            ],
            "name": "Transfer",
            "type": "event"
        },
        {
            "inputs": [
                {
                    "internalType": "address payable",
                    "name": "receiver",
                    "type": "address"
                },
                {
                    "internalType": "uint256",
                    "name": "amount",
                    "type": "uint256"
                },
                {
                    "internalType": "string",
                    "name": "message",
                    "type": "string"
                }
            ],
            "name": "addToBlockchain",
            "outputs": [],
            "stateMutability": "nonpayable",
            "type": "function"
        },
        {
            "inputs": [],
            "name": "getAllTranscations",
            "outputs": [
                {
                    "components": [
                        {
                            "internalType": "address",
                            "name": "sender",
                            "type": "address"
                        },
                        {
                            "internalType": "address",
                            "name": "receiver",
                            "type": "address"
                        },
                        {
                            "internalType": "uint256",
                            "name": "amount",
                            "type": "uint256"
                        },
                        {
                            "internalType": "string",
                            "name": "message",
                            "type": "string"
                        },
                        {
                            "internalType": "uint256",
                            "name": "timestamp",
                            "type": "uint256"
                        }
                    ],
                    "internalType": "struct Transcation.TransferStruct[]",
                    "name": "",
                    "type": "tuple[]"
                }
            ],
            "stateMutability": "view",
            "type": "function",
            "constant": true
        },
        {
            "inputs": [],
            "name": "getTransactionCount",
            "outputs": [
                {
                    "internalType": "uint256",
                    "name": "",
                    "type": "uint256"
                }
            ],
            "stateMutability": "view",
            "type": "function",
            "constant": true
        }
    ],
    "bytecode": "0x608060405234801561000f575f80fd5b50610cb08061001d5f395ff3fe608060405234801561000f575f80fd5b506004361061003f575f3560e01c80632e7700f0146100435780634c08488114610061578063eb12da4a1461007f575b5f80fd5b61004b61009b565b60405161005891906103ef565b60405180910390f35b6100696100a3565b604051610076919061060e565b60405180910390f35b610099600480360381019061009491906107d0565b61024c565b005b5f8054905090565b60606001805480602002602001604051908101604052809291908181526020015f905b82821015610243578382905f5260205f2090600502016040518060a00160405290815f82015f9054906101000a900473ffffffffffffffffffffffffffffffffffffffff1673ffffffffffffffffffffffffffffffffffffffff1673ffffffffffffffffffffffffffffffffffffffff168152602001600182015f9054906101000a900473ffffffffffffffffffffffffffffffffffffffff1673ffffffffffffffffffffffffffffffffffffffff1673ffffffffffffffffffffffffffffffffffffffff168152602001600282015481526020016003820180546101aa90610869565b80601f01602080910402602001604051908101604052809291908181526020018280546101d690610869565b80156102215780601f106101f857610100808354040283529160200191610221565b820191905f5260205f20905b81548152906001019060200180831161020457829003601f168201915b50505050508152602001600482015481525050815260200190600101906100c6565b50505050905090565b5f8081548092919061025d906108c6565b919050555060016040518060a001604052803373ffffffffffffffffffffffffffffffffffffffff1681526020018573ffffffffffffffffffffffffffffffffffffffff16815260200184815260200183815260200142815250908060018154018082558091505060019003905f5260205f2090600502015f909190919091505f820151815f015f6101000a81548173ffffffffffffffffffffffffffffffffffffffff021916908373ffffffffffffffffffffffffffffffffffffffff1602179055506020820151816001015f6101000a81548173ffffffffffffffffffffffffffffffffffffffff021916908373ffffffffffffffffffffffffffffffffffffffff1602179055506040820151816002015560608201518160030190816103869190610aaa565b506080820151816004015550507fc4b32d7ff75a51e487f3cbb5d3202f2efecca1f4c2b987e0039c1d3220b48a8333848484426040516103ca959493929190610c22565b60405180910390a1505050565b5f819050919050565b6103e9816103d7565b82525050565b5f6020820190506104025f8301846103e0565b92915050565b5f81519050919050565b5f82825260208201905092915050565b5f819050602082019050919050565b5f73ffffffffffffffffffffffffffffffffffffffff82169050919050565b5f61045a82610431565b9050919050565b61046a81610450565b82525050565b610479816103d7565b82525050565b5f81519050919050565b5f82825260208201905092915050565b5f5b838110156104b657808201518184015260208101905061049b565b5f8484015250505050565b5f601f19601f8301169050919050565b5f6104db8261047f565b6104e58185610489565b93506104f5818560208601610499565b6104fe816104c1565b840191505092915050565b5f60a083015f83015161051e5f860182610461565b5060208301516105316020860182610461565b5060408301516105446040860182610470565b506060830151848203606086015261055c82826104d1565b91505060808301516105716080860182610470565b508091505092915050565b5f6105878383610509565b905092915050565b5f602082019050919050565b5f6105a582610408565b6105af8185610412565b9350836020820285016105c185610422565b805f5b858110156105fc57848403895281516105dd858261057c565b94506105e88361058f565b925060208a019950506001810190506105c4565b50829750879550505050505092915050565b5f6020820190508181035f830152610626818461059b565b905092915050565b5f604051905090565b5f80fd5b5f80fd5b5f61064982610431565b9050919050565b6106598161063f565b8114610663575f80fd5b50565b5f8135905061067481610650565b92915050565b610683816103d7565b811461068d575f80fd5b50565b5f8135905061069e8161067a565b92915050565b5f80fd5b5f80fd5b7f4e487b71000000000000000000000000000000000000000000000000000000005f52604160045260245ffd5b6106e2826104c1565b810181811067ffffffffffffffff82111715610701576107006106ac565b5b80604052505050565b5f61071361062e565b905061071f82826106d9565b919050565b5f67ffffffffffffffff82111561073e5761073d6106ac565b5b610747826104c1565b9050602081019050919050565b828183375f83830152505050565b5f61077461076f84610724565b61070a565b9050828152602081018484840111156107905761078f6106a8565b5b61079b848285610754565b509392505050565b5f82601f8301126107b7576107b66106a4565b5b81356107c7848260208601610762565b91505092915050565b5f805f606084860312156107e7576107e6610637565b5b5f6107f486828701610666565b935050602061080586828701610690565b925050604084013567ffffffffffffffff8111156108265761082561063b565b5b610832868287016107a3565b9150509250925092565b7f4e487b71000000000000000000000000000000000000000000000000000000005f52602260045260245ffd5b5f600282049050600182168061088057607f821691505b6020821081036108935761089261083c565b5b50919050565b7f4e487b71000000000000000000000000000000000000000000000000000000005f52601160045260245ffd5b5f6108d0826103d7565b91507fffffffffffffffffffffffffffffffffffffffffffffffffffffffffffffffff820361090257610901610899565b5b600182019050919050565b5f819050815f5260205f209050919050565b5f6020601f8301049050919050565b5f82821b905092915050565b5f600883026109697fffffffffffffffffffffffffffffffffffffffffffffffffffffffffffffffff8261092e565b610973868361092e565b95508019841693508086168417925050509392505050565b5f819050919050565b5f6109ae6109a96109a4846103d7565b61098b565b6103d7565b9050919050565b5f819050919050565b6109c783610994565b6109db6109d3826109b5565b84845461093a565b825550505050565b5f90565b6109ef6109e3565b6109fa8184846109be565b505050565b5b81811015610a1d57610a125f826109e7565b600181019050610a00565b5050565b601f821115610a6257610a338161090d565b610a3c8461091f565b81016020851015610a4b578190505b610a5f610a578561091f565b8301826109ff565b50505b505050565b5f82821c905092915050565b5f610a825f1984600802610a67565b1980831691505092915050565b5f610a9a8383610a73565b9150826002028217905092915050565b610ab38261047f565b67ffffffffffffffff811115610acc57610acb6106ac565b5b610ad68254610869565b610ae1828285610a21565b5f60209050601f831160018114610b12575f8415610b00578287015190505b610b0a8582610a8f565b865550610b71565b601f198416610b208661090d565b5f5b82811015610b4757848901518255600182019150602085019450602081019050610b22565b86831015610b645784890151610b60601f891682610a73565b8355505b6001600288020188555050505b505050505050565b610b8281610450565b82525050565b5f610ba2610b9d610b9884610431565b61098b565b610431565b9050919050565b5f610bb382610b88565b9050919050565b5f610bc482610ba9565b9050919050565b610bd481610bba565b82525050565b5f82825260208201905092915050565b5f610bf48261047f565b610bfe8185610bda565b9350610c0e818560208601610499565b610c17816104c1565b840191505092915050565b5f60a082019050610c355f830188610b79565b610c426020830187610bcb565b610c4f60408301866103e0565b8181036060830152610c618185610bea565b9050610c7060808301846103e0565b969550505050505056fea264697066735822122086557f81253ba8d71adbb4ae89af3de43595d5edb6af2b899a2eccb1645d174264736f6c63430008140033",
    "immutableReferences": {},
    "source": "// SPDX-License-Identifier:UNLICENSE\r\n\r\npragma solidity ^0.8.15;\r\n\r\ncontract Transcation {\r\n\r\n    // Number of Tx\r\n    uint256 transcationCount;\r\n\r\n    // this will be event that will be fired when a new transcation is created\r\n    event Transfer(address from, address receiver, uint amount, string message, uint timestamp);\r\n\r\n    // struct to store transcation details on chain\r\n    struct TransferStruct{\r\n        address sender;\r\n        address receiver;\r\n        uint amount;\r\n        string message;\r\n        uint256 timestamp;\r\n\r\n    }\r\n\r\n    // array of transcation struct\r\n    TransferStruct[] transcations; // [{reciver:0xa..,amount:100,message:\"hello\",timestamp:1234567890},{reciver:0xa..,amount:100,message:\"hello\",timestamp:1234567890}]\r\n    \r\n    // function to add a transcation to the blockchain with our struct\r\n    // payable keyword here means that the receiver is able to receive ether by sender\r\n\r\n    function addToBlockchain(address payable receiver, uint amount, string memory message) public {\r\n\r\n        // increase the transcation count\r\n        transcationCount++;\r\n\r\n        //push TransferStruct struct into transcations array\r\n        transcations.push(TransferStruct(msg.sender, receiver, amount, message, block.timestamp));\r\n\r\n        // emit the event that we created \r\n        emit Transfer(msg.sender, receiver, amount, message, block.timestamp);\r\n\r\n    }\r\n\r\n    // function to get all transcations\r\n    function getAllTranscations() public view returns(TransferStruct[] memory){\r\n        return transcations;\r\n    }\r\n\r\n     function getTransactionCount() public view returns (uint256) {\r\n        return transcationCount;\r\n    }\r\n\r\n    //view keyword means that func can only be used to read data from blockchain\r\n    // therefor no ether needed to run the functions\r\n\r\n    \r\n\r\n    \r\n}",
    "sourcePath": "h:\\Rahul Prasad 01\\Eth Bootcamp\\Venmo_Dapp\\Backend\\contracts\\Transcation.sol",
    "compiler": {
        "name": "solc",
        "version": "0.8.20+commit.a1b79de6.Emscripten.clang"
    },
    "schemaVersion": "3.4.14",
    "updatedAt": "2023-07-01T17:26:38.349Z",
    "networkType": "ethereum",
    "devdoc": {
        "kind": "dev",
        "methods": {},
        "version": 1
    },
    "userdoc": {
        "kind": "user",
        "methods": {},
        "version": 1
    }
}